{
  "contractName": "FileSharing",
  "abi": [
    {
      "anonymous": false,
      "inputs": [
        {
          "indexed": false,
          "internalType": "uint256",
          "name": "fileId",
          "type": "uint256"
        },
        {
          "indexed": false,
          "internalType": "string",
          "name": "name",
          "type": "string"
        },
        {
          "indexed": false,
          "internalType": "address",
          "name": "owner",
          "type": "address"
        }
      ],
      "name": "FileUploaded",
      "type": "event"
    },
    {
      "inputs": [],
      "name": "fileCount",
      "outputs": [
        {
          "internalType": "uint256",
          "name": "",
          "type": "uint256"
        }
      ],
      "stateMutability": "view",
      "type": "function"
    },
    {
      "inputs": [
        {
          "internalType": "uint256",
          "name": "",
          "type": "uint256"
        }
      ],
      "name": "files",
      "outputs": [
        {
          "internalType": "string",
          "name": "name",
          "type": "string"
        },
        {
          "internalType": "string",
          "name": "content",
          "type": "string"
        },
        {
          "internalType": "address",
          "name": "owner",
          "type": "address"
        }
      ],
      "stateMutability": "view",
      "type": "function"
    },
    {
      "inputs": [
        {
          "internalType": "string",
          "name": "_name",
          "type": "string"
        },
        {
          "internalType": "string",
          "name": "_content",
          "type": "string"
        }
      ],
      "name": "uploadFile",
      "outputs": [],
      "stateMutability": "nonpayable",
      "type": "function"
    },
    {
      "inputs": [
        {
          "internalType": "uint256",
          "name": "fileId",
          "type": "uint256"
        }
      ],
      "name": "downloadFile",
      "outputs": [
        {
          "internalType": "string",
          "name": "",
          "type": "string"
        },
        {
          "internalType": "string",
          "name": "",
          "type": "string"
        },
        {
          "internalType": "address",
          "name": "",
          "type": "address"
        }
      ],
      "stateMutability": "view",
      "type": "function"
    }
  ],
  "bytecode": "0x608060405234801561000f575f80fd5b50610c538061001d5f395ff3fe608060405234801561000f575f80fd5b506004361061004a575f3560e01c8063439535191461004e57806393df27381461006c578063996d50bf1461009e578063f4c714b4146100ba575b5f80fd5b6100566100ec565b604051610063919061050f565b60405180910390f35b61008660048036038101906100819190610563565b6100f2565b60405161009593929190610657565b60405180910390f35b6100b860048036038101906100b391906107c6565b61029a565b005b6100d460048036038101906100cf9190610563565b6103a7565b6040516100e393929190610657565b60405180910390f35b60015481565b6060805f600154841061013a576040517f08c379a000000000000000000000000000000000000000000000000000000000815260040161013190610886565b60405180910390fd5b5f805f8681526020019081526020015f209050805f0181600101826002015f9054906101000a900473ffffffffffffffffffffffffffffffffffffffff16828054610184906108d1565b80601f01602080910402602001604051908101604052809291908181526020018280546101b0906108d1565b80156101fb5780601f106101d2576101008083540402835291602001916101fb565b820191905f5260205f20905b8154815290600101906020018083116101de57829003601f168201915b5050505050925081805461020e906108d1565b80601f016020809104026020016040519081016040528092919081815260200182805461023a906108d1565b80156102855780601f1061025c57610100808354040283529160200191610285565b820191905f5260205f20905b81548152906001019060200180831161026857829003601f168201915b50505050509150935093509350509193909250565b5f60015f8154809291906102ad9061092e565b91905055905060405180606001604052808481526020018381526020013373ffffffffffffffffffffffffffffffffffffffff168152505f808381526020019081526020015f205f820151815f0190816103079190610b12565b50602082015181600101908161031d9190610b12565b506040820151816002015f6101000a81548173ffffffffffffffffffffffffffffffffffffffff021916908373ffffffffffffffffffffffffffffffffffffffff1602179055509050507f6b91b014a57030f2c2db5fca6b08916e721a712f2510c3069caef5f5a6d3360481843360405161039a93929190610be1565b60405180910390a1505050565b5f602052805f5260405f205f91509050805f0180546103c5906108d1565b80601f01602080910402602001604051908101604052809291908181526020018280546103f1906108d1565b801561043c5780601f106104135761010080835404028352916020019161043c565b820191905f5260205f20905b81548152906001019060200180831161041f57829003601f168201915b505050505090806001018054610451906108d1565b80601f016020809104026020016040519081016040528092919081815260200182805461047d906108d1565b80156104c85780601f1061049f576101008083540402835291602001916104c8565b820191905f5260205f20905b8154815290600101906020018083116104ab57829003601f168201915b505050505090806002015f9054906101000a900473ffffffffffffffffffffffffffffffffffffffff16905083565b5f819050919050565b610509816104f7565b82525050565b5f6020820190506105225f830184610500565b92915050565b5f604051905090565b5f80fd5b5f80fd5b610542816104f7565b811461054c575f80fd5b50565b5f8135905061055d81610539565b92915050565b5f6020828403121561057857610577610531565b5b5f6105858482850161054f565b91505092915050565b5f81519050919050565b5f82825260208201905092915050565b5f5b838110156105c55780820151818401526020810190506105aa565b5f8484015250505050565b5f601f19601f8301169050919050565b5f6105ea8261058e565b6105f48185610598565b93506106048185602086016105a8565b61060d816105d0565b840191505092915050565b5f73ffffffffffffffffffffffffffffffffffffffff82169050919050565b5f61064182610618565b9050919050565b61065181610637565b82525050565b5f6060820190508181035f83015261066f81866105e0565b9050818103602083015261068381856105e0565b90506106926040830184610648565b949350505050565b5f80fd5b5f80fd5b7f4e487b71000000000000000000000000000000000000000000000000000000005f52604160045260245ffd5b6106d8826105d0565b810181811067ffffffffffffffff821117156106f7576106f66106a2565b5b80604052505050565b5f610709610528565b905061071582826106cf565b919050565b5f67ffffffffffffffff821115610734576107336106a2565b5b61073d826105d0565b9050602081019050919050565b828183375f83830152505050565b5f61076a6107658461071a565b610700565b9050828152602081018484840111156107865761078561069e565b5b61079184828561074a565b509392505050565b5f82601f8301126107ad576107ac61069a565b5b81356107bd848260208601610758565b91505092915050565b5f80604083850312156107dc576107db610531565b5b5f83013567ffffffffffffffff8111156107f9576107f8610535565b5b61080585828601610799565b925050602083013567ffffffffffffffff81111561082657610825610535565b5b61083285828601610799565b9150509250929050565b7f46696c65206e6f7420666f756e640000000000000000000000000000000000005f82015250565b5f610870600e83610598565b915061087b8261083c565b602082019050919050565b5f6020820190508181035f83015261089d81610864565b9050919050565b7f4e487b71000000000000000000000000000000000000000000000000000000005f52602260045260245ffd5b5f60028204905060018216806108e857607f821691505b6020821081036108fb576108fa6108a4565b5b50919050565b7f4e487b71000000000000000000000000000000000000000000000000000000005f52601160045260245ffd5b5f610938826104f7565b91507fffffffffffffffffffffffffffffffffffffffffffffffffffffffffffffffff820361096a57610969610901565b5b600182019050919050565b5f819050815f5260205f209050919050565b5f6020601f8301049050919050565b5f82821b905092915050565b5f600883026109d17fffffffffffffffffffffffffffffffffffffffffffffffffffffffffffffffff82610996565b6109db8683610996565b95508019841693508086168417925050509392505050565b5f819050919050565b5f610a16610a11610a0c846104f7565b6109f3565b6104f7565b9050919050565b5f819050919050565b610a2f836109fc565b610a43610a3b82610a1d565b8484546109a2565b825550505050565b5f90565b610a57610a4b565b610a62818484610a26565b505050565b5b81811015610a8557610a7a5f82610a4f565b600181019050610a68565b5050565b601f821115610aca57610a9b81610975565b610aa484610987565b81016020851015610ab3578190505b610ac7610abf85610987565b830182610a67565b50505b505050565b5f82821c905092915050565b5f610aea5f1984600802610acf565b1980831691505092915050565b5f610b028383610adb565b9150826002028217905092915050565b610b1b8261058e565b67ffffffffffffffff811115610b3457610b336106a2565b5b610b3e82546108d1565b610b49828285610a89565b5f60209050601f831160018114610b7a575f8415610b68578287015190505b610b728582610af7565b865550610bd9565b601f198416610b8886610975565b5f5b82811015610baf57848901518255600182019150602085019450602081019050610b8a565b86831015610bcc5784890151610bc8601f891682610adb565b8355505b6001600288020188555050505b505050505050565b5f606082019050610bf45f830186610500565b8181036020830152610c0681856105e0565b9050610c156040830184610648565b94935050505056fea2646970667358221220c2b411eddf7cbd40b3ed1a1f6c86bdd06d22b15ee9a5eed97bd7c180cfc69b4f64736f6c63430008150033",
  "immutableReferences": {},
  "source": "// FileSharing.sol\npragma solidity ^0.8.0;\n\ncontract FileSharing {\n    struct File {\n        string name;\n        string content;\n        address owner;\n    }\n\n    mapping(uint256 => File) public files;\n    uint256 public fileCount;\n\n    event FileUploaded(uint256 fileId, string name, address owner);\n\n    function uploadFile(string memory _name, string memory _content) public {\n        uint256 fileId = fileCount++;\n        files[fileId] = File(_name, _content, msg.sender);\n        emit FileUploaded(fileId, _name, msg.sender);\n    }\n\n    function downloadFile(uint256 fileId) public view returns (string memory, string memory, address) {\n        require(fileId < fileCount, \"File not found\");\n        File storage file = files[fileId];\n        return (file.name, file.content, file.owner);\n    }\n}\n",
  "sourcePath": "/Users/mbn/Documents/GitHub/rust-blockchain-file-sharing/rust-blockchain-file-sharing/src/contracts/FileSharing.sol",
  "compiler": {
    "name": "solc",
    "version": "0.8.21+commit.d9974bed.Emscripten.clang"
  },
  "schemaVersion": "3.4.16",
  "updatedAt": "2024-02-05T07:20:21.381Z",
  "devdoc": {
    "kind": "dev",
    "methods": {},
    "version": 1
  },
  "userdoc": {
    "kind": "user",
    "methods": {},
    "version": 1
  }
}